:042000003FEF12F0AC
:082008000C004E4F2044495327
:10201000504F4E49424C450056616C6F722041440E
:10202000433A2025750A00000A50070802E30BC056
:1020300095FF0A50070805E20A500F0802E30BC09B
:1020400093FF0A50080802E10BC093FF12000C50E6
:10205000070B006E0C30016E013201321F0E0116AB
:1020600001500E24E96E000E0F20EA6E016A012A6B
:10207000002A01D00136002EFDD70D5203E0015099
:10208000EF1203D0011E0150EF1612000B2C12D0DC
:102090000AC00CF0010E0D6E0F0E0F6E890E0E6E43
:1020A000D6DF0AC00CF00D6A0F0E0F6E920E0E6E88
:1020B000CEDF12D00B5210E10AC00CF00D6A0F0EE9
:1020C0000F6E890E0E6EC3DF0AC00CF00D6A0F0E84
:1020D0000F6E920E0E6EBBDF1200080E0A6E0B68BA
:1020E000A3DF1B0E0A6E0B6A9FDF1B0E0A6E0B6AC4
:1020F000CDDF4AEF12F00F0EEA6EC10EE96EC00E90
:10210000EF160B50EF12C050C00B0709C06EC09EF7
:10211000C2800A34006E0036FC0E0016C250C30B9B
:102120000010C26E98EF10F00A6A0E0E0B6EE3D725
:102130004BEF12F0EA6A0F0EE96EEF500DE0060E5B
:10214000016E006A002EFED7012EFBD77B0E006EBB
:10215000002EFED7EF2EF3D712001638F00B006ECC
:102160000F0E8C1400108C6E00008C80020E006E1E
:10217000002EFED700D000008C9012008350006E1D
:1021800000380F0B016E12000F0E9514F009956EBA
:102190008C8400008C800000F1DF01C016F08C9070
:1021A00000008C8000D000D00000E8DF01C015F0F6
:1021B0008C900F0E9514956E1638006EF00E00166A
:1021C00000501510016EEAEF10F0959095929594DD
:1021D0008C92DAD701C015F001BEFBD78C9213B0F8
:1021E0008C8200008C9400008C901438156E0F0EB9
:1021F000151615C016F0B1DF14500F0B156E166EC4
:10220000ACDF1200280E0B6E0C0E0C6E010E0D6E64
:10221000060E0E6E8C908C928C940F0E9514956E0B
:102220009590959295940F0E0F6E84DF010E0A6EB5
:102230000A50030808E3030E166E8FDF050E0F6EBB
:1022400079DF0A2AF5D7020E166E87DF050E0F6EAC
:1022500071DF0A6A0A5003080FE3036A0A500B0F82
:10226000E96E000E0320EA6EEFCF0FF0136A0FC085
:1022700014F0ABDF0A2AEED73FEF11F0C3D742EFDD
:1022800011F0FCD74CEF12F00A50080804E1000EE0
:1022900081B0010E016E120006C0EAFF05C0E9FF21
:1022A0000DC0EFFFE92AD8B4EA2AEF6A052AD8B4AC
:1022B000062A12000900F5520CE0F6CF0AF0F7CF1B
:1022C0000BF0F5CF0DF0E8DF0AC0F6FF0BC0F7FF0B
:1022D000F1D773EF12F0102C01D003D0400E116E25
:1022E00001D0116A010E0F5C112611508009126E87
:1022F000136A146E6ADF12000E50070A07E00B0A19
:102300000AE0060A10E0020A14E018D0010E0F6E6F
:10231000106EE1DF18D0136A010E146E56DF020E44
:102320000F6E08DF10D0010E0F6E020E106ED3DF9D
:102330000AD0136A100E146E48DF05D0010E136E1A
:102340000EC014F042DF12000900F5520CE0F6CF87
:102350000CF0F7CF0DF0F5CF0EF0CEDF0CC0F6FF8E
:102360000DC0F7FFF1D7CDEF11F0EF520FE0EACF3C
:102370000DF0E9CF0CF0EFCF0EF0BEDF0DC0EAFF9D
:102380000CC0E9FFE92AD8B4EA2AEFD7D6EF11F05A
:10239000080EF66E200EF76ED7D7010E0F6E106E78
:1023A0009ADF0BC0EAFF0AC0E9FFDFD712000A3448
:1023B000006E0036FC0E0016C250C30B0010C26E39
:1023C000C282C2B2FED7C4CF01F07BEF12F0090087
:1023D000F6CF0BF0F7CF0CF0F5CF0DF05DDF0BC0B3
:1023E000F6FF0CC0F7FF0A2EF2D787EF12F00D5060
:1023F000016A0C5C03E20CC000F00CD0006A080E0D
:102400000E6E0C3600360D50005CD8B0006E0136F2
:102410000E2EF7D7120001500AC00CF0640E0D6E9C
:10242000E6DF00C00AF00150300E07E10BA20CD02D
:102430000BB60AD00BB8200E03D00B960B980B806E
:10244000012601C00DF028DF0AC00CF00A0E0D6E47
:10245000CEDF00C00AF00150300E06E10BB608D006
:102460000BA006D00BB8200E012601C00DF014DF22
:10247000300E0A260AC00DF00FDF8CEF12F0F86A5A
:10248000D09E066A056AC150C00B0F09C16E070EC7
:10249000B46E23D649D6F5D6076A086A096A080ECB
:1024A0000A6EF2DE015223E1080E0A6EEDDE0152E1
:1024B000FBE0072A0750010B010808E11B0E0A6E1A
:1024C000010E0B6EE3DD010E086E11D01B0E0A6EBD
:1024D0000B6ADCDD086A066A04C005F00A0EF66EB7
:1024E000200EF76EE7D60B6A04C00AF051DF0852DF
:1024F0001AE00A6A5CD701C009F0066A04C005F058
:10250000180EF66E200EF76E0B0E0A6E60D709C01D
:102510000AF01B0E0B6E7FD70A0E0D6EBDDE0B6A26
:1025200004C00AF035DF320E0F6E04DEB8D70300A8
:020000040030CA
:0E0000003FCC3E1E0087A1000FC00FE00F4056
:00000001FF
;PIC18F4550
;CRC=6605  CREATED="11-sep.-24 22:43"
